:020000040000fa
:080000000001040000000000f3
:020000040000fa
:100008009401000094010000940100009401000094
:100018009401000094010000940100009401000084
:100028009401000094010000940100009401000074
:100038009401000094010000940100009401000064
:1000480094010000b201000094010000c601000004
:100058009401000094010000940100009401000044
:100068009401000094010000940100009401000034
:100078009401000094010000940100009401000024
:100088009401000094010000940100009401000014
:100098009401000094010000940100009401000004
:1000a80094010000940100009401000094010000f4
:1000b80094010000940100009401000094010000e4
:1000c80094010000940100009401000094010000d4
:1000d80094010000940100009401000094010000c4
:1000e80094010000940100009401000094010000b4
:0800f8009401000094010000d6
:020000040000fa
:100108009401000094010000940100009401000093
:100118009401000094010000940100009401000083
:100128009401000094010000940100009401000073
:100138009401000094010000940100009401000063
:1001480094010000b201000094010000c601000003
:100158009401000094010000940100009401000043
:100168009401000094010000940100009401000033
:100178009401000094010000940100009401000023
:100188009401000094010000940100009401000013
:100198009401000094010000940100009401000003
:1001a80094010000940100009401000094010000f3
:1001b80094010000940100009401000094010000e3
:1001c80094010000940100009401000094010000d3
:1001d80094010000940100009401000094010000c3
:1001e80094010000940100009401000094010000b3
:0801f8009401000094010000d5
:020000040000fa
:100200000f8120000eff20000e018800000000007a
:1002100000012000200288000c000700003e2000a2
:100220000100200011000700000020000000e00095
:1002300002003200000002000000000090020200f4
:10024000000000000040da000000fe004440a90069
:10025000000020000000e000030032000000200049
:10026000a00188004440a800000006009101880019
:10027000800078000000eb0015003700e2804000ad
:1002800032a0b4009101ba00e280400032a0b40074
:100290009102ba00e280400032a0b4000002eb00fc
:1002a000472bde00f507b200602ce10004003a00a5
:1002b0000059eb008301e900fdff3e000400370018
:1002c0006128e100010032000082eb000400070019
:1002d0001101ba000200e000e8ff3a000000060049
:1002e0003159ba008301e9000c0032002159ba00eb
:1002f0008301e900080032000400e00003003a0036
:10030000e280400032a0b400f5ff370011d9ba00f6
:100310008301e900faff3a008100e800e180400033
:1003200032a0b400000006000040da000000fe0029
:020000040000fa
:100330000000fa0004042000a41088000d42a80068
:100340008d20a80075108000c4ff2f000482620079
:10035000741088000de2a8000f42a8000080fa0087
:10036000000006003400f800881f78000800200014
:10037000a80188004f0478000000fa008520a90039
:100380000080fa003400f90000400600841f780065
:100390003400f80004002000a40188000000fa00e6
:1003a0000414800004408800141480001440880065
:1003b00024148000244088008560a9000080fa0091
:1003c0003400f9004f027800004006000200fa00f5
:1003d000000f78000000000075108000041020005d
:1003e00004826200e00f5200fbff320064108000c4
:1003f00066026200e60f520003003a001e02780017
:100400008410880003003700f40f20001e026200f1
:10041000841088000080fa00000006000400fa0042
:10042000100798009e029000843e200011000900f1
:100430008482d80000027800044f78009e42780041
:100440000582fb000403b00004007800dfff070012
:100450001e4078008082fb0084c12f0004aab900ee
:10046000040278009e029000048242001407980063
:100470009e02900044062000110009008482d800ea
:1004800000027800044f78009e4278000582fb004d
:100490000403b00004007800ccff07001e40780081
:1004a0008082fb00c4f92f0004aab900040278007e
:1004b0009e02900004824200140798009e02900061
:1004c000a4002000110009008482d80000027800f6
:1004d000044f78009e4278000582fb000403b000c0
:1004e00004007800b9ff07001e4078008082fb00fe
:1004f00064ff2f0004aab900040278009e02900055
:1005000004824200140798001e0290000403b00009
:1005100004007800adff07000080fa00000006002c
:100520000400fa00000f7800110798000002eb00a9
:100530005440880003003700544080000402e80063
:100540005440880055408000f4702200848f52008f
:10055000f9ff3600c602a800c622a800c642a800bd
:100560000002eb0044408800030037004440800054
:100570000402e8004440880045408000f4a52e00b5
:10058000848f5200f9ff360069ff07005100070011
:10059000a1e2a800000220008cff070004408000b8
:1005a000040078009dff07000002eb006440880013
:1005b00003003700644080000402e80064408800c3
:1005c00065408000743e2000848f5200f9ff3600a1
:1005d000000220007dff07000002eb00644088005d
:1005e00003003700644080000402e8006440880093
:1005f00065408000743e2000848f5200f9ff360071
:10060000144080000400780084ff07000002eb0023
:100610006440880003003700644080000402e80062
:100620006440880065408000743e2000848f520042
:10063000f9ff36000002200064ff0700244080001c
:100640000400780075ff07000002eb00644088009a
:1006500003003700644080000402e8006440880022
:1006600065408000743e2000848f5200f9ff360000
:10067000d000200055ff07003007200053ff07007f
:100680000002eb00544088000d0037000002eb0030
:100690006440880003003700644080000402e800e2
:1006a000644088006540800074bb2000848f520045
:1006b000f9ff3600544080000402e80054408800ee
:1006c00055408000743e2000848f5200efff3600ba
:1006d000b0ff37000000fa00a1a2a90004158000b5
:1006e0000480a1000490a100041588000415800076
:1006f0000450a0000460a0000470a000041588004d
:10070000a022a8001415800004d0a00004e0a000de
:1007100004f0a00014158800a342a800141580005e
:100720000420a1000430a0000440a1000450a10056
:1007300014158800a222a900a202a9002515800094
:1007400004f021000482720024158800a4e2a800ad
:100750002515800004fc2f0004826200f401b30020
:1007600024158800a782a900a682a900341580005c
:100770000400a1000410a1000420a1000430a10085
:1007800034158800341580000480a1000490a10075
:1007900004a0a10004b0a100341588000002eb0001
:1007a000441588007400200054158800a042a80059
:1007b0008560a8008d60a8000080fa000000060097
:020000040000fa
:1007c0000008000010000000000000000000000011
:020000040000fa
:0200000401f009
:04000000e5bf000058
:020000040000fa
:0200000401f009
:04000400ff7f00007a
:00000001FF
