:020000040000fa
:080000000001040000000000f3
:020000040000fa
:100008002004000020040000200400002004000058
:100018002004000020040000200400002004000048
:1000280020040000200400002004000094010000c7
:100038002004000020040000b20100002004000099
:10004800200400006e02000020040000820200006c
:100058002004000020040000200400002004000008
:1000680020040000200400002004000020040000f8
:1000780020040000200400002004000020040000e8
:1000880020040000200400002004000020040000d8
:1000980020040000200400002004000020040000c8
:1000a80020040000200400002004000020040000b8
:1000b80020040000200400002004000020040000a8
:1000c8002004000020040000200400002004000098
:1000d8002004000020040000200400002004000088
:1000e8002004000020040000200400002004000078
:0800f8002004000020040000b8
:020000040000fa
:100108002004000020040000200400002004000057
:100118002004000020040000200400002004000047
:1001280020040000200400002004000094010000c6
:100138002004000020040000b20100002004000098
:10014800200400006e02000020040000820200006b
:100158002004000020040000200400002004000007
:1001680020040000200400002004000020040000f7
:1001780020040000200400002004000020040000e7
:1001880020040000200400002004000020040000d7
:1001980020040000200400002004000020040000c7
:1001a80020040000200400002004000020040000b7
:1001b80020040000200400002004000020040000a7
:1001c8002004000020040000200400002004000097
:1001d8002004000020040000200400002004000087
:1001e8002004000020040000200400002004000077
:0801f8002004000020040000b7
:020000040000fa
:100200002f8120000eff20000e018800000000005a
:1002100000012000200288000c000700806e2000f2
:100220000100200011000700000020000000e00095
:100230000200320000000200000000003c03020047
:10024000000000000040da000000fe004440a90069
:10025000000020000000e000030032000000200049
:10026000a00188004440a800000006009101880019
:10027000800078000000eb0015003700e2804000ad
:1002800032a0b4009101ba00e280400032a0b40074
:100290009102ba00e280400032a0b4000002eb00fc
:1002a000472bde00f507b200602ce10004003a00a5
:1002b0000059eb008301e900fdff3e000400370018
:1002c0006128e100010032000082eb000400070019
:1002d0001101ba000200e000e8ff3a000000060049
:1002e0003159ba008301e9000c0032002159ba00eb
:1002f0008301e900080032000400e00003003a0036
:10030000e280400032a0b400f5ff370011d9ba00f6
:100310008301e900faff3a008100e800e180400033
:1003200032a0b40000000600841f78003400f800fa
:1003300004002000a40188000000fa000002eb0085
:1003400004088800744080000402e80074408800bb
:100350008460a9000080fa003400f9004f027800a0
:1003600000400600841f78003400f80004002000dc
:10037000a40188000000fa000002eb0034088800a5
:10038000844080000402e8008440880084c0a90002
:100390000080fa003400f9004f02780000400600a7
:1003a0000200fa00000f78000002eb0074408800a1
:1003b000000000009e02780074408000848f52008c
:1003c000fcff3e000080fa00000006000200fa0078
:1003d000000f78000002eb0084408800000000005d
:1003e0009e02780084408000848f5200fcff3e0013
:1003f0000080fa00000006000000fa00a8c2a80071
:10040000a8e2a800c6c2a900c6e2a900c162a9006c
:100410000080fa00000006000000fa00cac2a8002e
:1004200010002000deff0700cac2a9003001200032
:10043000dbff07000080fa00000006000000fa0061
:10044000cac2a80020002000d5ff0700cac2a90028
:1004500020012000d2ff07000080fa000000060003
:100460000000fa00cae2a80010002000ccff07003c
:10047000cae2a90030012000c9ff07000080fa008d
:10048000000006000000fa00cae2a80020002000d8
:10049000c3ff0700cae2a90020012000c0ff070037
:1004a0000080fa00000006000000fa0004042000aa
:1004b000a41088000d42a8008d20a80075108000af
:1004c000c4ff2f0004826200741088000de2a800af
:1004d0000f42a8000080fa00000006003400f80077
:1004e000881f780008002000a80188004f047800c9
:1004f0000000fa008520a9000080fa003400f9000d
:1005000000400600841f78003400f800040020003a
:10051000a40188000000fa00041480000440880050
:1005200014148000144088002414800024408800a3
:100530008560a9000080fa003400f9004f027800bd
:10054000004006000200fa00000f780000000000e2
:10055000751080000410200004826200e00f520039
:10056000fbff32006410800066026200e60f52005a
:1005700003003a001e027800841088000300370050
:10058000f40f20001e026200841088000080fa0030
:10059000000006000400fa00100798009e02900078
:1005a000843e2000110009008482d80000027800f7
:1005b000044f78009e4278000582fb000403b000df
:1005c00004007800dfff07009e029000843e2000b8
:1005d000110009008482d8000102780014079800f5
:1005e0009e02900044062000110009008482d80079
:1005f00000027800044f78009e4278000582fb00dc
:100600000403b00004007800ceff07009e029000b3
:1006100044062000110009008482d80001027800fd
:10062000140798009e029000a40020001100090009
:100630008482d80000027800044f78009e4278003f
:100640000582fb000403b00004007800bdff070032
:100650009e029000a4002000110009008482d800ae
:10066000010278000403b00004007800b5ff070021
:100670000080fa00000006000400fa00000f780075
:10068000110798005cff0700007122008801070035
:10069000a00020003e0107000002eb00444088005b
:1006a00003003700444080000402e8004440880012
:1006b00045408000f4702200848f5200f9ff36001c
:1006c000c602a800c622a800c642a8000002eb008d
:1006d0003440880003003700344080000402e80002
:1006e0003440880035408000f4a52e00848f5200ed
:1006f000f9ff36006cff07007a010700a1e2a800ad
:10070000000220008fff07000440800004007800f2
:10071000a0ff07000002eb005440880003003700f0
:10072000544080000402e800544088005540800096
:10073000743e2000848f5200f9ff36000002200032
:1007400080ff07000002eb005440880003003700e0
:10075000544080000402e800544088005540800066
:10076000743e2000848f5200f9ff36001440800050
:100770000400780087ff07000002eb005440880067
:1007800003003700544080000402e8005440880011
:1007900055408000743e2000848f5200f9ff3600df
:1007a0000002200067ff070024408000040078005a
:1007b00078ff07000002eb00544088000300370078
:1007c000544080000402e8005440880055408000f6
:1007d000743e2000848f5200f9ff3600d0002000c4
:1007e00058ff07003007200056ff07000002eb000b
:1007f000444088000d0037000002eb0054408800a0
:1008000003003700544080000402e8005440880090
:100810005540800074bb2000848f5200f9ff3600e1
:10082000444080000402e8004440880045408000c5
:10083000743e2000848f5200efff3600b0ff370077
:080840000040da000000fe0098
:020000040000fa
:100848000400fa00100798000002eb00040f78007b
:10085800010037001e0fe8001e0290009e0278007b
:10086800848f5200fbff35000080fa00000006006c
:100878000c00fa00e401200024079800640420001a
:1008880034079800440620004407980024032000f9
:10089800540798000002eb00040f78001c00370092
:1008a8000002eb001407980012003700241680009d
:1008b8004b22de00614262000404a2006142620031
:1008c8000482fb00610262004b22dd0026168000d4
:1008d800f57f2f00850263000482720024168800c9
:1008e8004e009000d6ff07001e0290000402e800a8
:1008f800140798009e0290003e029000848f5200d8
:10090800eaff35005e009000a3fe07001e0fe80016
:100918002e0290009e027800848f5200e0ff35007e
:100928000080fa00000006000c00fa0024002000f5
:100938002407980064042000340798004406200027
:100948004407980024032000540798000002eb0095
:10095800040f78001c0037000002eb001407980011
:1009680012003700241680004b22de00614262002c
:100978000404a200614262000482fb00610262007a
:100988004b22dd0026168000f57f2f0085026300cc
:1009980004827200241688004e009000a8ff070009
:1009a8001e0290000402e800140798009e029000be
:1009b8003e029000848f5200eaff35005e009000ee
:1009c80075fe07001e0fe8002e0290009e027800b8
:1009d800848f5200e0ff35000080fa000000060016
:1009e8000c00fa003400200024079800640420005a
:1009f80034079800240320004407980024032000ab
:100a0800540798000002eb00040f78001c00370020
:100a18000002eb001407980012003700241680002b
:100a28004b22de00614262000404a20061426200bf
:100a38000482fb00610262004b22dd002616800062
:100a4800f57f2f0085026300048272002416880057
:100a58004e0090007aff07001e0290000402e80092
:100a6800140798009e0290003e029000848f520066
:100a7800eaff35005e00900047fe07001e0fe80001
:100a88002e0290009e027800848f5200e0ff35000d
:100a98000080fa00000006000000fa008cc0a900df
:100aa80011e1a90084c0a9000080fa000000060036
:100ab8000200fa00000f780084c0a9001e02780026
:100ac800044278006742620067426200674262003f
:100ad8000482fb00670262004822dd00b604800041
:100ae800f58f2f008502630004827200b404880029
:100af8009e027800688262004322de000442780089
:100b0800614262000482fb00610262004622dd004d
:100b180066048000f5fb2f008502630004827200e2
:100b2800640488000080fa00000006000400fa004f
:100b3800000f7800110798000002eb0034088800c5
:100b48001e029000640888001e027800840888004d
:100b58001061a9000080fa00000006000000fa00f9
:100b680034088000040078000080fa0000000600c5
:100b78000200fa00000f78001e027800340888008e
:100b88000080fa00000006000400fa001007980030
:100b980090ff2f00c6ff07000000eb00f4ff0700de
:100ba8001e029000040f78009e00780090f82d0037
:100bb800deff07000080fa00000006000000fa00cf
:100bc8008c60a90005e1a9008460a9000080fa00f2
:100bd800000006000200fa00000f78008460a900f7
:100be8001e02780004427800674262006742620091
:100bf800674262000482fb00670262004c22dd004b
:100c0800a6048000f5ff28008502630004827200b4
:100c1800a40488009e027800688262004322de00f5
:100c280004427800614262000482fb0061026200b3
:100c38004322dd006604800075ff2f0085026300f3
:100c480004827200640488000080fa000000060034
:100c58000400fa00000f7800110798000002eb006a
:100c6800040888001e029000140888001e027800fc
:100c7800240888000080fa00000006000000fa003e
:100c880004088000040078000080fa0000000600d4
:100c98000200fa00000f78001e027800040888009d
:100ca8000080fa00000006000400fa00100798000f
:100cb80090ff2f00c7ff07000000eb00f4ff0700bc
:100cc8001e029000040f78009e00780090f82d0016
:100cd800dfff07000080fa00000006000000fa00ad
:100ce800a1a2a900041580000480a1000490a1001d
:100cf80004158800041580000450a0000460a000ba
:100d08000470a00004158800a022a8001415800013
:100d180004d0a00004e0a00004f0a000141588008e
:100d2800a342a800141580000420a1000430a000ec
:100d38000440a1000450a10014158800a222a900b3
:100d4800a202a9002515800004f021000482720087
:100d580024158800a4e2a8002515800004fc2f00b3
:100d680004826200f401b30024158800a782a90058
:100d7800a682a900341580000400a1000410a10077
:100d88000420a1000430a100341588003415800027
:100d98000480a1000490a10004a0a10004b0a10057
:100da800341588000002eb00441588007400200008
:100db80054158800a042a8008560a8008d60a8008e
:080dc8000080fa0000000600a3
:020000040000fa
:100dd0000e080000040000000200000000000000f7
:100de00000000000000800000e00000000000000ed
:040df00000000000ff
:020000040000fa
:0200000401f009
:04000000e5bf000058
:020000040000fa
:0200000401f009
:04000400ff7f00007a
:00000001FF
